:020000041000EA
:1000000000B5324B212058609868022188439860DF
:10001000D860186158612E4B002199600221596106
:100020000121F02299502B49196001219960352056
:1000300000F044F80222904214D00621196600F024
:1000400034F8196E01211966002018661A6600F04E
:100050002CF8196E196E196E052000F02FF8012189
:100060000842F9D1002199601B49196000215960AB
:100070001A491B48016001219960EB211966A021F2
:10008000196600F012F800219960164914480160C1
:100090000121996001BC002800D000471248134993
:1000A000086003C880F30888084703B5996A0420EC
:1000B0000142FBD001200142F8D103BD02B5186610
:1000C0001866FFF7F2FF186E186E02BD00000240BE
:1000D000000000180000070000035F00212200005C
:1000E000F4000018222000A00001001008ED00E03C
:1000F00000000000000000000000000074B24E7A12
:1001000000200420F7010010C3010010C5010010F9
:10011000C1010010C1010010C1010010C101001097
:10012000C1010010C1010010C1010010C701001081
:10013000C1010010C1010010C9010010CB01001065
:10014000CD010010CD010010CD010010CD01001037
:10015000CD010010CD010010CD010010CD01001027
:10016000CD010010CD010010CD010010CD01001017
:10017000CD010010CD010010CD010010CD01001007
:10018000CD010010CD010010CD010010CD010010F7
:10019000CD010010CD010010CD010010CD010010E7
:1001A000CD010010CD010010CD010010CD010010D7
:1001B000CD010010CD010010CD010010CD010010C7
:1001C00000BE00BE00BE00BE00BE00BEEFF3058054
:1001D000103800BEF2EB8871745C0A10985C0A104B
:1001E0003402001090A31AE700201F49086006C8D7
:1001F00081F3088810471D48006800282FD10DA4FE
:100200000ECC002902D000F012F8F9E71849194A7B
:10021000002000E001C19142FCD1174988471749ED
:1002200088471749884700BEFDE701C901C29A42C5
:10023000FBD37047985C0A10C0000020081F002004
:10024000007B0A100000042000000420007B0A103C
:10025000001004200010042000000000704709482E
:1002600007F0DCFC0047000008ED00E0000000D0D3
:10027000281F0020DC0D0220196900104503001022
:10028000D76800105756000006005250ABB36053B9
:10029000F8D6051006005250861C030208D7051038
:1002A000060052505422A29D1CD705100500525042
:1002B000DE65F468007B0A10F8B5C04610B5064C40
:1002C0002378002B07D1054B002B02D0044800E017
:1002D00000BF0123237010BD80200020000000001B
:1002E00000AF0510044B10B5002B03D003490448A0
:1002F00000E000BF10BDC0460000000084200020C8
:1003000000AF051070B504000D00012805D0002CC9
:1003100002D1074B9D4207D070BD054B9942F6D1E3
:1003200004481AF06BFEF2E702481AF077FEF3E792
:10033000FFFF00002C4A0020014B986A7047C0461E
:1003400000400540F0B587B008F0CEFB694808F0E2
:100350008FFB00224821012009F030FC050000221B
:100360000821042009F02AFC040000224821012071
:1003700009F024FC060000224821012009F01EFC9F
:10038000070000224821012009F018FC02900022F9
:100390004821012009F012FC0390002202210120D3
:1003A00009F00CFC049000224821012009F006FC11
:1003B0000590002D50D0002C4ED04F4B1B78BFF332
:1003C0005B8FDB074CD54D4B1B78BFF35B8FDB0797
:1003D00052D54B4B1B78BFF35B8FDB0762D5494B84
:1003E0001B78BFF35B8FDB0768D5474B1B78BFF3E8
:1003F0005B8FDB0770D58026F60000250195012470
:100400000094424B3200424942480AF0FBFA0195FF
:100410000094414B3200414941480AF0F3FA0195FA
:100420000094404B3200404940480AF0EBFA8022E9
:10043000019500943E4B12013E493F480AF0E2FA12
:100440008022019500943D4B52013D493D480AF000
:10045000D9FA0AF06DFBFEE73B4808F009FBACE770
:1004600025481AF0BFFA0028ADD02B4B1D605C6008
:1004700021481AF0D3FAA6E720481AF0B3FA002868
:10048000A7D0284B1D605C609E60DF60029A1A61F5
:10049000039A5A61049A9A61059ADA6117481AF028
:1004A000BDFA96E716481AF09DFA002897D0204B1F
:1004B0001F605E6012481AF0B1FA90E711481AF016
:1004C00091FA002891D01D4B049A1A60059A5A603F
:1004D0000C481AF0A3FA88E70B481AF083FA0028B0
:1004E00089D00A4B029A1A60039A5A6006481AF099
:1004F00095FA80E700AF0510542100204821002024
:1005000058210020502100204C210020544A002076
:1005100024AF0510DD3E0010644A00202CAF05100A
:1005200021250010344A002038AF0510711E00103C
:100530006C4A002044AF0510692A00105C4A002074
:1005400048AF0510513C00100CAF051010B5024922
:100550000120FFF7D7FE10BDFFFF000010B504001B
:10056000012009F065FC2060200010BD10B50400DA
:1005700000680AF039F8200010BD10B501210068AC
:10058000494209F04FFE10BD10B50068002300225B
:10059000002109F079FB10BD10B50B68002B0DDBB5
:1005A000934205D95200934202D20A60002A08DB26
:1005B0000868013008D408F0B3F810BD03482DF0E6
:1005C00059F8034B0B60F3E72DF01CF854AF0510FE
:1005D000FFFFFF7F30B583B00400019115000F29A4
:1005E0000AD8019A002A0FD1019A626023689B18E9
:1005F00000221A7003B030BD002201A9FFF7CCFF22
:100600002060019BA360ECE72068012A05D0002A46
:10061000EAD0290008F078F8E6E70570E4E7F0B5DD
:10062000D6464F4680B583B004000D0017009946AA
:100630004068461AB61A0A9B9C466044801A01908C
:10064000230008332268934221D0A26801A9200028
:10065000FFF7A2FF8246002D1BD14B46002B02D094
:100660000A9B002B21D1002E30D1206823000833B3
:10067000984203D0A368591C08F062F853462360DF
:10068000019BA36003B0C0BCBA46B146F0BD0F22C7
:10069000DCE72168012D05D0002DDED02A0008F00E
:1006A00039F8DAE70B780370D7E7534658190A9BF5
:1006B000012B07D00A9B002BD5D01A00494608F021
:1006C00029F8D0E74B461B780370CCE70A9BEB1860
:1006D00053441800ED1923685919012E05D0002E36
:1006E000C3D0320008F016F8BFE70B780370BCE700
:1006F000F0B5D6464F464646C0B582B00400170056
:1007000099460A9E4268BB1A6148844663449E42E9
:1007100032D8B518ED1B23682000083098422ED03F
:10072000A068A84200D2ABE058188246511AC91BF3
:1007300088464946994524D39B18994221D8002ED2
:1007400051D14346002B01D0B74259D1B7421FD2F5
:100750004B469A195346DB199A4260D94B4500D94A
:1007600070E0F11B4944012E68D0002E10D03200F9
:10077000504607F0CFFF0BE046482CF07BFF0F20E0
:10078000CFE74346002B01D0B7420DD1002E1BD13D
:10079000656023685B1900221A70200002B0E0BC7B
:1007A000BA46B146A846F0BD53469819390051449F
:1007B0004346012B05D0002BE8D042464DF034F9DA
:1007C000E4E70B780370E1E7012E07D0002EDFD0BD
:1007D00032004946504607F09DFFD9E74B461B784B
:1007E00052461370D4E7B742ABD3012E05D0002E8A
:1007F000A7D032004DF018F9A3E70B780370A0E7FB
:1008000053469819D9194346012B05D0002B9DD08A
:1008100042464DF009F999E70B78037096E7012EEF
:1008200007D0002EB4D03200494650464DF0FCF8B7
:10083000AEE74B461B7852461370A9E70B78524639
:100840001370A5E74A469F1A012F07D0002F08D042
:100850003A00494650464DF0E7F802E01378524618
:1008600013705346D8199919F21B012A05D0002A92
:1008700000D18DE707F04EFF8AE70B78037087E71A
:1008800000964B463A002000FFF7C9FE80E7C046BD
:10089000FFFFFF7F6CAF0510F8B5CE46474680B529
:1008A00004000E009046002585600C30FFF756FED0
:1008B00025616561A561E5612562002E08D0012EE4
:1008C00045D1274B2360182363600E250F2705E0D1
:1008D000244B23601723636010251127B946380085
:1008E00004F06EF800220121380003F03DFF2F00D4
:1008F000280004F065F800220121280003F034FFED
:100900000021606804F07CF96068002E22D016494E
:1009100004F086F94146206808F06EFA0321380099
:1009200003F00AFF0321484603F006FF23681B6813
:100930000022DA6323681B680E329A63002E0BD004
:100940000A4B1C602000C0BCB946B046F8BD084840
:1009500006F05EF80749DBE7074B1C60F2E7C0468C
:10096000D0130020C8130020E50B00100C44002019
:1009700088AF0510C50B00100844002070B50AE0D0
:10098000002D01D0002414E0012412E04369013B52
:100990004361012A1DD04269002A20D001680B68FA
:1009A0005B6F102B1BD0C5690B799B02012AE7D026
:1009B0000024640223430469661C066124780968E4
:1009C00023430B61036819790029DFD000211971D5
:1009D000DCE7002DDFD0012302681371DBE770BD77
:1009E00010B502E0C369013BC361C369002B16D097
:1009F000026811684C6F102C11D0013B5C426341BE
:100A0000127992025B0213438022520013430B615E
:100A100003681A79002AE5D000221A71E2E710BDB6
:100A2000F0B5CE46474680B583B00400894690466F
:100A30001D000B9E002A01D0002D04D10A9B002B23
:100A400048D0002E46D027000C3701973800FFF71A
:100A500094FD0AF0C7FCA06023681A680023D366DF
:100A60002268126849465160226812680121D166E5
:100A70002268126885218900116322681371434638
:100A8000236165610A9BA361E6612662002D27D080
:100A90002000FFF773FFAD190121606804F0B0F882
:100AA000FA229200012100200AF0EEFD061E04D079
:100AB000266A63699C466644AE1B6068002104F0A8
:100AC0009FF83800FFF760FD300003B0C0BCB946A6
:100AD000B046F0BD044B054A8721054805F0FEFEEF
:100AE0002000FFF77DFFD6E7A0AF0510D8AF0510B7
:100AF00024B0051010B582B0002401940094FFF7D3
:100B00008FFF02B010BD00B583B0019300920023A7
:100B10000022FFF785FF03B000BD000010B584B0D0
:100B200004000023039307E01A69A369591CA1611B
:100B30001A70236A013B2362236A002B04D02368C6
:100B40001B689A6F002AEFD123681B68DB6ADB06FB
:100B500010D56369002B1BD1E369002B1CD163699D
:100B6000002B07D1E369002B04D123681B68812285
:100B700092001A6323681B68DA6A920510D4039BFB
:100B8000002B03D00E4B802252051A6004B010BD1A
:100B90002000FFF7F3FEE2E72000FFF721FFDEE78A
:100BA00000221A6323681B681B6EA06803AB0193C5
:100BB00000920323013200210AF08CFEDFE7C046D9
:100BC00004ED00E010B5064B1868002802D0FFF7CE
:100BD000A5FF10BD0021172004F012F8F9E7C04668
:100BE0000844002010B5064B1868002802D0FFF713
:100BF00095FF10BD0021182004F002F8F9E7C04667
:100C00000C440020F0B5C64600B504000E00904626
:100C10001F00FFF7A3FC069B6361002201210898D7
:100C200008F0CCFF606000220121099808F0C6FF9F
:100C3000A060002E42D114202061002E40D1244B10
:100C4000E360002E3ED1234B1C60002103F0D8FF4F
:100C50000699E06805F022FCE26811002C31079B40
:100C60005D1EED0060231D43D36A5D406E2215407A
:100C700080235B010B431D600221404603F05CFDB5
:100C80000221380003F058FD2069002E1DD11249C1
:100C900003F0C6FFE2685023936311003431536BB5
:100CA00038221A4080235B010B431A60012120691E
:100CB00003F0A6FF200080BCB846F0BD1520BBE7BE
:100CC000064BBDE7064B1C60BFE70649E0E7C046A0
:100CD000004003405C3400208D0E00100080034073
:100CE00060340020B50E0010F0B5C64600B582B0E5
:100CF00006000C00170098460190FFF73EFC002507
:100D000001E001340135BD4206DA42462100B068F7
:100D100009F0E2F90128F4D03000FFF735FC280093
:100D200002B080BCB846F0BDF0B5C64600B582B092
:100D300004000D00170098460190FFF71EFC0026E6
:100D400001E001350136BE4207DA002342462900A0
:100D5000606808F099FF0128F3D00021206903F0B2
:100D60004FFFE3689B6B9B0615D4E3689B699B066A
:100D70000CD400226B46D91C606809F0ADF901283B
:100D800004D16B46DA78E3681A60EEE7606809F030
:100D9000A3FB00280BD10121206903F031FF2000C3
:100DA000FFF7F2FB300002B080BCB846F0BDE2684D
:100DB0007023936310003430536B38211940802323
:100DC0005B0103431960516B07220A401A60E2E796
:100DD00010B582B004000023019306E0002301AAAD
:100DE00069460331A06809F055F8E268936910205C
:100DF0000100194018420BD16B46D81C0029EDD1D7
:100E00009369DB06FCD41368037001310130F5E708
:100E1000019B002B03D0034B802252051A6002B0C5
:100E200010BDC04604ED00E010B582B00400002300
:100E3000019303E06B46DA78E3681A60E3689B6924
:100E40009B0607D401AA6B46D91C606809F0D6FA44
:100E50000128EFD0606809F057FB00280BD0E2684A
:100E60005023936311003431536B38221A4080238E
:100E70005B010B431A60019B002B03D0024B8022C5
:100E800052051A6002B010BD04ED00E010B5084B29
:100E90001868002806D0FFF79BFF054B1868FFF77E
:100EA000C3FF10BD0021142003F0AAFEF9E7C046DD
:100EB0005C34002010B5084B1868002806D0FFF7F6
:100EC00087FF054B1868FFF7AFFF10BD0021152005
:100ED00003F096FEF9E7C0466034002030B585B0D7
:100EE00001AA074B110030CB30C11B780B70C368CF
:100EF000D96A596BC90807230B40D05C05B030BDD7
:100F000090B0051040697047030082214900425AA1
:100F1000805C01325A52704782225200835AC15477
:100F200001338352704782225200835A0133835225
:100F3000704710B5030082246400025B815C0902E3
:100F4000501C185C084302321A5310BD10B582229F
:100F50005200835A0C0AC4545C1C0155023383525C
:100F600010BD82235B000022C252704710B50400FE
:100F7000FFF7F7FF002383225200A3540822FF3219
:100F8000A3540132A35200220B33FF33E2540C234B
:100F9000FF33E25410BD000070B504000D00A9231A
:100FA0005B00C35A144A93421BD00133A92252005A
:100FB00083522000FFF7DAFF5223FF33E35C8322E2
:100FC0005200A3540822FF32A5544B32A15A4A3A88
:100FD000A152002B04D14133FF33E35C012B05D038
:100FE00070BDA9235B000122C252E2E70A33FF333E
:100FF000083AFF3AE254F3E7FFFF000070B50C0037
:10100000A2235B00C558403BC15A4833C3589C22B9
:101010005200825840182100A847844208D009DDB8
:10102000002802DB0320404270BD04204042FBE761
:101030000020F9E704204042F6E770B50C00A42335
:101040005B00C5580433C3589C2252008258A847FD
:10105000844208D009DD002802DB0320404270BD35
:1010600004204042FBE70020F9E704204042F6E775
:10107000F8B504000D009C235B00C7589E22520067
:101080008258C250FFF772FF00232B704133FF33A9
:10109000E35C012B04D0022B22D000263000F8BDE7
:1010A00001212000FFF7AAFF06009C235B00E75008
:1010B0000028F3D1383BFF3B2B702000FFF724FFC3
:1010C00083235B00E05401212000FFF797FF061EF9
:1010D000E4D12000FFF718FF0823FF33E054DDE7D9
:1010E00001212000FFF78AFF06009C235B00E750E8
:1010F0000028D3D1383BFF3B2B702000FFF713FFB4
:1011000007212000FFF77AFF061EC7D12000FFF756
:1011100028FF2000FFF70DFF84235B00E052200032
:10112000FFF707FF07002000FFF703FF050020007F
:10113000FFF7EAFE83235B00E0542000FFF7E4FEA4
:101140000823FF33E054002F04D1FF2DA6D9062633
:101150007642A3E706267642A0E770B504000D00AC
:10116000FFF7FFFEA0235B00E35C012B08D0022BFE
:101170000DD00823FF33E15C2000FFF7CDFE70BDEA
:101180000633FF33E15C2000FFF7C6FEF1E70733CB
:10119000FF33E15A2000FFF7D9FE00212000FFF7BE
:1011A000D5FE0235A9B22000FFF7D0FE83235B00F5
:1011B000E15C2000FFF7B0FEDBE710B5FFF7CDFFE5
:1011C00010BD70B505000C00002820D0AA225200E6
:1011D000002107F099FA01235B429C225200AB5098
:1011E0000432AB50002C15D02378013BDBB2012B2D
:1011F00013D86368002B13D0A368002B13D041359C
:10120000FF350ECC0EC523682B60002070BD012079
:101210004042FBE701204042F8E701204042F5E769
:1012200001204042F2E701204042EFE79E235B00AD
:10123000C15070479C235B00C15070475223FF335D
:10124000C154704730B505000C0000200B4B0BE07B
:101250005B08013A002A06D0D907F9D55B0808498E
:101260004B409BB2F5E70130A04203D22A5C5340C9
:101270000822EFE75BBA98B230BDC046FFFF00001E
:1012800001A0FFFF70B50400A0235B00C35C012B2D
:1012900002D00025280070BD0433FF33C15AFFF788
:1012A000D1FF060002212000FFF7A8FE051EF1D1A4
:1012B0002000FFF73EFE8642ECD005256D42E9E7AF
:1012C000F0B583B0040084235B00C65A023BC75CC0
:1012D0000823FF33C55C6B46D91DFFF7C9FE002804
:1012E00014D1A0235B00E35C022B11D0012B17D09B
:1012F0000823FF33E35CAB4208D0803BAB4226D1EE
:1013000001212000FFF77AFE002811D003B0F0BDC4
:1013100084225200A25AB242E8D006204042F5E7A9
:101320000633FF33E35CBB42E2D007204042EDE7E7
:101330002000FFF7E9FD05002000FFF7A3FF0028CC
:10134000E4D16B1EDBB2032B04D868B2DEE70220C7
:101350004042DBE702204042D8E7F0B583B0060008
:1013600000911700FFF7ACFF002801D003B0F0BDDB
:1013700001213000FFF742FE0028F7D13000FFF7CF
:10138000C3FD0400019081B23000FFF737FE002852
:10139000ECD1002500E001356308DBB2AB4207DD8C
:1013A0003000FFF7C6FD002FF5D06B00F852F2E7D2
:1013B0003000FFF767FF0028D8D1009B5C00019B3D
:1013C000A342D3D00238D1E710B50400A0235B00BC
:1013D000C35C012B06D082235B00E15A2000FFF79B
:1013E0002CFE10BD0433FF33C15AFFF72BFF010061
:1013F0002000FFF7ABFDEEE770B5040016001D00FE
:10140000013B9BB27C2B1ED853198022520293427F
:101410001CD8FFF7C1FD04212000FFF7CEFE3100EC
:101420002000FFF793FD29002000FFF78FFD20002B
:10143000FFF7CAFF002800D070BD049A29002000E1
:10144000FFF78BFFF8E701204042F5E7012040421B
:10145000F2E7F0B583B007000C001500FFF730FF8E
:10146000002801D003B0F0BD04213800FFF7C6FD0D
:101470000028F7D13800FFF75CFD06003800FFF7C1
:1014800058FD01903800FFF7FDFE0028EAD1A64282
:1014900005D1019BAB42E5D002204042E2E70220A9
:1014A0004042DFE710B5FFF78CFE10BD00B583B0FA
:1014B000009313000A000321FFF79EFF03B000BD55
:1014C00000B583B0009313000A000421FFF794FFD6
:1014D00003B000BD70B504000D0016000621FFF733
:1014E0005BFD04212000FFF768FE29002000FFF7C4
:1014F0002DFD31002000FFF729FD2000FFF764FFDC
:10150000002804D185235B00E35C002B00D070BD74
:10151000320029002000FFF79CFFF8E730B503AC4C
:1015200025780C68046049684160002902D04C6845
:1015300001344C608260C360057430BD10B582B068
:1015400004006B460022DA80017A006800F0E2F8BD
:10155000237C002B0AD02068A1896B460633012228
:1015600000F0DDF86B46D88802B010BD2068A18974
:101570006B460633012200F0D7F8F3E770B504009C
:101580000D00037C002B00D170BD017A006800F0D3
:10159000C1F82068A1892A0000F0CBF8F4E7F0B583
:1015A000DE4657464E464546E0B583B005000C0082
:1015B0009846002A19DB91464046FFF78FFC002829
:1015C00017D10026A21BA9194B464046FFF78CFBFA
:1015D0003618B44201DD0028F4DC300003B0F0BC62
:1015E000BB46B246A946A046F0BD01235B429946E0
:1015F000E2E78300181840000022002300920193C4
:101600002030009000230193009BD90E5801009ACE
:10161000019B801A9941C30D9C4606004B0261460E
:101620000B4372020098019912184B41910E8C469F
:1016300016001F0099016346194332003B00B001B8
:10164000801A9941009E019F36184F414046FFF78E
:1016500059FC0200C3173000390006F071FB8346C5
:101660008A46FA229200002306F06AFB06000F0069
:10167000FA22920000235846514606F061FB100002
:10168000190013000B4301D001200021801979417A
:101690000023002905D1994200D092E7484500D89F
:1016A0008FE781468DE710B50400180013000A008B
:1016B0002100FFF739FB10BD70B504000B68036013
:1016C0004B684360002B02D05A6801325A600123F4
:1016D00023720E4BE3600E4B236123686361250088
:1016E0001835210008312800FFF7DCFE0121280011
:1016F000FFF7A4FDFA2189002800FFF797FD0321D9
:101700002800FFF797FD200070BDC0469F15001010
:10171000A716001010B51830FFF790FD10BD10B5DA
:101720001830FFF7C3FE10BD10B51830FFF7C8FE24
:1017300010BD10B51830FFF7CDFE10BD024B036091
:101740008180C2807047C046A4B00510F0B5DE4667
:1017500057464E464546E0B583B080468B46160058
:1017600001932AE064080135002C0ED0E307F9D577
:10177000002DF7DBF388AB42F4DD33689F68AAB233
:101780000C9B41463000B847ECE757464346B0460D
:101790001E0001370136B6B2072F0BDC43469B888B
:1017A000B342F6D94B46DC5D019DBA46330046464E
:1017B0009846D9E701239C46E3445B461A78002A01
:1017C0000BD01300203A5F2A00D97F23203BDB0097
:1017D000054A994691440027DEE703B0F0BCBB46BA
:1017E000B246A946A046F0BDB8B0051010B582B00B
:1017F00003681C6983880191C2880092002200213D
:10180000A04702B010BDF0B5DE4657464E464546ED
:10181000E0B593B080460F0018001C9B9B464346E2
:101820009B889A4200DB80E0029004004546E888ED
:1018300084427ADA5542BE88B446B54275DA6642C9
:10184000B146FE880596B1456FDA002606960792E6
:10185000002A31DC06A90968039100210891029948
:101860000991002C2ADC08A90968019100210A913C
:101870000B95002D24DC0AA90968049100210C9124
:1018800049460D9100291DDC0CA9096800910E93B1
:1018900062440F92934217DC0EAB1B689A4610907D
:1018A000029B059A94466344119398420EDC10AB58
:1018B0001B6802931D9E31E007A9CCE709A9D3E775
:1018C0000BA9D9E70DA9E0E70FABE6E711ABEFE70E
:1018D00043461A68936899466B469A88A1B20300FA
:1018E0004046C84701350134544511DA3B68DB688E
:1018F0006A461288A9B238009847002E05D032688F
:10190000D36881B20022300098475845E0D1E9E71A
:10191000009B01330093019B01330193019B029AC9
:10192000934202DA039C049DDEE713B0F0BCBB4691
:10193000B246A946A046F0BD30B5D50884896C43AF
:101940006118C48909190724144005696A560120E1
:10195000A040824352B2581E8341A3401A436A54A6
:1019600030BD30B50469D50883896B435B18C189E4
:101970005B18E05C07231A40030013410120184064
:1019800030BDF0B5D6464F464646C0B582B081461A
:101990008C46140001930AAB1B880B9D12E00023B8
:1019A000D35601278740BB435BB22F007E1EB74151
:1019B00087403B431370013201390029EFD10134D4
:1019C000A4B243465F1EBAB29046002B0FD0E30884
:1019D0004A4692895A4362444B46DB89D2184B46A9
:1019E0001B699A465244072020400199E5E702B05E
:1019F000E0BCBA46B146A846F0BD10B503685B68C6
:101A0000984710BD024B0360024B03607047C0460D
:101A1000DCB30510C0B3051070B504000D4B0833DE
:101A200003604569002D11D06B68013B6B60002B92
:101A30000CD12B689B6828009847AB68013BAB60D2
:101A4000002B03D12B68DB6828009847024B2360EA
:101A5000200070BDF0B30510A4B005100020704741
:101A600010B5C068002802D0012106F069FE10BD43
:101A700010B50400044B0360044B0360102106F012
:101A80005FFE200010BDC046DCB30510C0B30510DA
:101A900010B5044B0360044B0360102106F050FEA8
:101AA00010BDC046DCB30510C0B3051070B504000E
:101AB0000F4B083303604569002D11D06B68013B63
:101AC0006B60002B0CD12B689B6828009847AB6893
:101AD000013BAB60002B03D12B68DB6828009847E3
:101AE000044B23601821200006F02AFE200070BD60
:101AF000F0B30510A4B00510F0B5C64600B504005B
:101B00000D001600984606AB1F88FFF717FE174B0F
:101B100008332360F008730726D00123C0186843F8
:101B2000C019A0604346A381E78106F0FDFD0600D1
:101B3000206100236361102006F0F2FD0C4B03606E
:101B40000123436083600B4B0360C6606061A26841
:101B50000021206906F0D8FDA389AB4200D2A581FF
:101B6000200080BCB846F0BD0023D7E7F0B30510D5
:101B7000C0B30510DCB30510F0B5CE46474680B5BE
:101B800083B00400884601921E000AAB1B88994668
:101B90000BAB1D8897B232003900FFF7CFFD1A4B0F
:101BA00008332360F00873072CD001228018019BB2
:101BB00058434019A0604B46A381E58106F0B4FD6F
:101BC0000600206100236361102006F0A9FD0F4B81
:101BD00003600123436083600D4B0360C660606156
:101BE00023695819A3685A1B414606F093FDA28940
:101BF000A3889A4200D2A781200003B0C0BCB94696
:101C0000B046F0BD0022D1E7F0B30510C0B3051017
:101C1000DCB3051070B504001A4B0360C569002DD4
:101C200011D06B68013B6B60002B0CD12B689B685B
:101C300028009847AB68013BAB60002B03D12B68B1
:101C4000DB6828009847104B23606569002D11D090
:101C50006B68013B6B60002B0CD12B689B682800E4
:101C60009847AB68013BAB60002B03D12B68DB6866
:101C700028009847054B23602421200006F060FDD2
:101C8000200070BD14B40510F8B30510A4B0051001
:101C900070B50400184B0360C569002D11D06B6846
:101CA000013B6B60002B0CD12B689B682800984788
:101CB000AB68013BAB60002B03D12B68DB682800CD
:101CC00098470E4B23606569002D11D06B68013B6E
:101CD0006B60002B0CD12B689B6828009847AB6881
:101CE000013BAB60002B03D12B68DB6828009847D1
:101CF000034B2360200070BD14B40510F8B3051029
:101D0000A4B0051000B583B0030001AA0020108024
:101D100080301070517098692021595C0223FEF7C1
:101D2000E9FE03B000BD30B589B0050001AC1A2250
:101D30000021200006F0E8FCAE2323708E3B637088
:101D40002033E37061332371073363712033E37110
:101D50000B3323720733A372D83BE372D33323735D
:101D6000553B63735933A3731833E373163B2374E2
:101D7000AB3B63745133A3747E33E3745B3B2375D5
:101D800002336375193BA375793BE3751A332376E8
:101D900081336376EB885A1EA271202B01D912225F
:101DA000E27201AC04E021782800FFF7ABFF0134B8
:101DB0001E236B449C42F6D109B030BD70B582B091
:101DC00004000D001600190006AB1A8801230093C9
:101DD0000B00FFF791FE0B4B23602B68A3616B6830
:101DE000E361002B02D05A6801325A602023E65486
:101DF0002033226913702000FFF795FF200002B006
:101E000070BDC04614B4051070B5040081884D1E25
:101E1000ADB2802929D08026761AB6B27F2521213D
:101E20002000FFF76FFFF1B22000FFF76BFFE9B270
:101E30002000FFF767FF22212000FFF763FF00214A
:101E40002000FFF75FFFE188C9080139C9B220000F
:101E5000FFF758FF402322691370A0692269A36825
:101E60002021615CFEF746FE70BD0026D7E700002A
:101E7000F0B5DE4657464E464546E0B5DBB0026853
:101E80009246426805928768C2689146026901924B
:101E9000426902928569C369984648A9002248921E
:101EA0004A608A600026CE600E6100248A82002388
:101EB0008C75CB7550A88861CA61202083460B546D
:101EC00056A808634A63382084460B5436AB3692D2
:101ED0003792389239963A969A829C75DC753EAE66
:101EE0003C963D9258461C5444AE429643926046FE
:101EF0001C54349235922EAB30AE2E962F921C721B
:101F000028AB2AAE289629921C72D04A019808F074
:101F1000E3F8002821D0499B9CB22300913BFF3B72
:101F20009BB2CB4A934201D9C824A4004E9B019393
:101F30001900C84806F0CCFD549B01931900C6480F
:101F400006F0C6FD0223002248A9404607F09CFE89
:101F500000239B46039304938BE0C824A400F7E777
:101F600006ABDC880123169317942100BB4806F0CA
:101F7000AFFD0023002216A9029807F085FE98E025
:101F8000489B012B0ED0022B00D0A5E0002300229D
:101F900048A9029807F078FE4E99549AB04806F086
:101FA00097FD99E048A98C8800230022029807F049
:101FB0006BFE91E048AE4A99AA4806F089FD4B981D
:101FC00006F0FCFA02000B00A74806F081FD4C98D1
:101FD00006F0F4FA02000B00A44806F079FDB18A7D
:101FE000A34806F075FDB37D002B04D0A149A2489B
:101FF00006F06EFD7BE0A149F9E7A149A14806F092
:1020000067FD0223002248A9380007F03DFE434641
:10201000002B05D00223002248A9404607F034FED9
:10202000349E012E00D13BE1022E00D159E1002E59
:102030006AD0109812AB984203D0129B591C06F03C
:102040007FFB0A980CAB984203D00C9B591C06F0FE
:1020500077FB229824AB984203D0249B591C06F0AE
:102060006FFB1C981EAB984203D01E9B591C06F0B8
:1020700067FB16AB00221692179218920021199155
:102080001A919A82002100209875D9751EA81C907B
:102090001D922020195424A822902392383299545A
:1020A000363A06AB991D280008F016F8012800D131
:1020B00056E70AAA0CAB0A9300230B93137210AADB
:1020C00012A9109111931372022248A9484608F0F0
:1020D00003F8012800D153E7022248A9504607F02F
:1020E000FBFF0128A5D15B46002B00D162E70194DC
:1020F0004994002F8BD0644B1B7848AAD375002BD2
:1021000000D17AE7614979E74A9B019A323A9342D2
:102110002CDA049B002B0ED1039B002B16D001233D
:10212000349308F059FDFA239B009C466044359097
:1021300001239B467DE70223089300230993002295
:1021400008A9059807F0A0FD0496E5E70893FA238F
:102150009B0009934E4806F08BFC0023002208A93F
:10216000059807F091FD01230393D8E7FA22D200E6
:10217000934222DB049B642B06D1039B002B10D1DE
:10218000444806F075FC54E708AA434B03CB03C24E
:102190000023002208A9059807F076FD6423049324
:1021A000EBE70123089300230993002208A905986F
:1021B00007F06AFD00230393E2E7019A323293426B
:1021C00020DD049B322B0FD1039B002B00D130E785
:1021D00001230893002609963300320008A90598C8
:1021E00007F052FD039624E708AA2B4B083303CBD4
:1021F00003C20023012208A9059807F045FD3223F8
:102200000493E1E7934200DD13E7049B002B06D122
:10221000039B002B0ED1214806F02AFC09E702237C
:10222000089300220992130008A9059807F02CFDD5
:102230000496EDE701230893002609963300320047
:1022400008A9059807F020FD0396E4E7881300002D
:102250003408000038B4051064B4051090B40510BB
:10226000BCB40510F4B4051010B5051028B5051060
:1022700044B505102CB4051064B5051028B405103C
:1022800030B4051084B50510C00D022034B405101B
:10229000A0B50510BCB5051064B60510E0B5051075
:1022A00008F09AFC359B984200D2C2E6039B002BB3
:1022B0000BD1134806F0DCFB0223349308F08CFCAE
:1022C000104B9C4660443590B3E6012308930023ED
:1022D0000993002208A9059807F0D6FC0023039370
:1022E000E7E708F079FC359B984200D2A1E600238D
:1022F0003493054806F0BCFB00239B4699E6C04694
:1023000018B605108813000048B60510024B03608C
:10231000024B03607047C046F8B60510C0B3051005
:10232000024B0360024B03607047C046DCB60510E9
:10233000C0B3051010B50C300400064B994204D010
:10234000080035F083FB002801D0200010BD0024D8
:10235000FBE7C0460CB7051010B50C300400064B67
:10236000994204D0080035F071FB002801D020000C
:1023700010BD0024FBE7C0460CB7051010B50C30AB
:10238000FEF7F4F810BD000010B50400044B036024
:10239000044B0360242106F0D3F9200010BDC04691
:1023A000DCB60510C0B3051010B50400044B036083
:1023B000044B0360BC21490006F0C2F9200010BDA7
:1023C000F8B60510C0B3051000B585B003AB019396
:1023D0000290064B0360064B0360002803D0BC212B
:1023E000490006F0ADF905B000BDC046F8B60510CD
:1023F000C0B3051000B585B003AB01930290054B47
:102400000360054B0360002802D0242106F098F9F0
:1024100005B000BDDCB60510C0B3051010B50469E9
:10242000002C11D06368013B6360002B0CD1236842
:102430009B6820009847A368013BA360002B03D151
:102440002368DB682000984710BD10B5040043687E
:10245000013B4360002B0BD103689B689847A3683E
:10246000013BA360002B03D12368DB682000984761
:1024700010BD70B504000D00242006F051F9256050
:102480006060200070BD70B504000D00BC204000ED
:1024900006F046F925606060200070BDF0B587B099
:1024A000040016000023036001A902A8FFF7EBFF58
:1024B000039D194B2B6001236B60AB60174B2B60A6
:1024C0002F000C373368049373680593002B02D0F8
:1024D0005A6801325A6004A93800FFF7EDF8059EEA
:1024E000002E11D07368013B7360002B0CD1336850
:1024F0009B6830009847B368013BB360002B03D161
:102500003368DB68300098470023039365602760D9
:10251000200007B0F0BDC046C0B30510F8B60510E6
:10252000F0B5C64600B5C8B00668446800239846B2
:102530003E9307A908A8FFF79CFF099D6C4B2B60F1
:1025400001236B60AB606B4B2B602F000C3780233B
:102550005B0003930293FE3B019396239B01009340
:102560000523042201213800FEF74CFB4346099362
:102570003F953E973EAA46A93CA8FFF78FFF3C9B9C
:1025800040933D9B4193002B02D05A6801325A6020
:1025900040A937A801F024FE4198002801D0FFF798
:1025A00054FF3C9B42933D9B4393002B02D05A68BF
:1025B00001325A6042A92DA801F054FE4398002828
:1025C00001D0FFF742FF3C9B44933D9B4593002B7A
:1025D00002D05A6801325A6044A91DA801F0BEFE1B
:1025E0004598002801D0FFF730FF1B211CA801F0FF
:1025F000D9FD08F0F1FA05000AAB00220A920B920D
:102600000C9200210D910E919A8200210020987564
:10261000D97512A8109011922020195418A816905C
:102620001792383299541AE0334806F021FA1CA860
:1026300001F0CEFD13E008AFB9881DA801F086FEB9
:1026400009992E4806F044FA09E008F0C5FA401B43
:10265000FA229200904229D2322008F035FC002262
:1026600008A9200007F038FD0128EED1089B012BB6
:10267000DAD0022BDFD0002BF1D1099B0593190092
:102680001F4806F025FA1CA801F09BFD099A53018A
:102690009B1A98008018C000FA21890005F012FBEF
:1026A00008F012FC1CA801F093FDD8E737A801F050
:1026B000C9FD0C902DA801F031FE0D902DA801F060
:1026C00039FE0E901DA801F0CFFE02AB98861DA822
:1026D00001F0D2FE02AB36229B18187002230022B2
:1026E0000AA9300007F0D0FA08F076FA0500B3E73F
:1026F000C0B30510DCB6051098B60510B4B60510C9
:1027000074B60510024B0360024B03607047C0466D
:10271000DCB90510C0B30510F0B583B004000D009E
:1027200000230193013B009303F036FB06000F1ECC
:102730000BDB0C2C0FD0072C43D0092C00D179E0F7
:102740000A2C00D1B1E003B0F0BD674B674A3F21CE
:10275000674804F0C3F8674B1B78BFF35B8FDB0758
:1027600005D56B0712D5644B01221A70EBE761485F
:1027700018F038F90028F4D0604B18685968604B9D
:10278000186059605B4818F049F9EAE72B07DAD579
:10279000594B1B78002BD6D0594B1A685B68300018
:1027A0003900801A9941002903DCCCD1554B98425D
:1027B000C9D90023504A1370514A166057600093DC
:1027C00088E0514B1B78BFF35B8FDB0705D56B07A8
:1027D00012D54E4B01221A70B5E74B4818F002F99A
:1027E0000028F4D0454B18685968494B1860596067
:1027F000454818F013F9EAE72B07A4D5434B1B789B
:10280000002BA0D0424B1A685B6830003900801A58
:102810009941002905DC00D095E73A4B984200D851
:1028200091E73A4B00221A70394B1E605F60022319
:1028300000934FE0374B1B78BFF35B8FDB0705D569
:102840006B0712D5344B01221A707CE7314818F01F
:10285000C9F80028F4D0294B186859682F4B186024
:1028600059602C4818F0DAF8EAE72B0700D46AE739
:10287000294B1B78002B00D165E7284B1A685B6851
:1028800030003900801A9941002905DC00D05AE750
:102890001C4B984200D856E71F4B00221A701F4B62
:1028A0001E605F600323009314E02B0700D44AE707
:1028B0001B4A136801331360012B00DC43E713004C
:1028C00000221A60D0231B065B681B050AD5012372
:1028D0005B420093134B1868022301AA694607F074
:1028E000D9FA30E70123F4E714B7051030B7051023
:1028F00068B705103C210020C20D0220D0CE051083
:10290000281F0020A086010040210020C30D0220C6
:10291000301F002044210020C40D0220381F002059
:10292000304A00203832002010B50C300400064B2D
:10293000994204D0080035F089F8002801D0200021
:1029400010BD0024FBE7C0460CB7051010B51830C9
:10295000FDF70CFE10BD000010B50400044B036031
:10296000044B0360302105F0EBFE200010BDC04693
:10297000DCB90510C0B3051000B585B003AB0193F9
:102980000290054B0360054B0360002802D0302104
:1029900005F0D6FE05B000BDDCB90510C0B30510CA
:1029A000002304E019002031044AD15401335F2B85
:1029B000F8DD024A5F230021D154704790210020A6
:1029C00000230370704770B504000D0001F0F8FF9C
:1029D0000123A340D02212069362012D00D070BDC6
:1029E00000220121200001F0BFFEF8E770B50C00C5
:1029F000074D1022010028004CF032FD00262E74F5
:102A0000044D1022210028004CF02AFD2E7470BDC8
:102A10007C2100202432002010B5030000681A0039
:102A20000832904203D09968013105F089FE10BD4B
:102A300070B582B004000D00466808004CF0A8FC98
:102A400000902B00320000212000FDF751FE02B063
:102A500070BD70B504000D00302005F061FE2560EA
:102A60006060200070BD0000F0B5D6464F46464677
:102A7000C0B5D2B0456803689A46002204210120FF
:102A800007F09CF8D84B1860FFF78AFFD748FFF78C
:102A900097FFD748FFF794FF002399464D9305A968
:102AA00006A8FFF7D6FF079CD24B23600123636083
:102AB000A360D14B236027000C37D04A0121380096
:102AC000FDF7EAFE4B4607934E944D974F9750946F
:102AD000002C02D0626801326260402300934033D0
:102AE0003C224FA944A8FFF769F95098002801D06B
:102AF000FFF7ABFC4822002132A805F005FE3AABF7
:102B00003893002439942023994602AB4946C022C9
:102B10009B185C5440AB3E933F94382702AB9B1804
:102B2000DC55783A002120A805F0EEFD28AB26936D
:102B3000279402AB494678229B185C542EAB2C9309
:102B40002D9402AB9B18DC55AD4B1C6000210A2074
:102B5000FFF739FF00210B20FFF735FF01210C2083
:102B6000FFF731FF01210720FFF72DFF0121092089
:102B7000FFF729FFA34B01220C210C2001F0C4FE1A
:102B8000012208210A2001F0AFFE01220C210720BA
:102B900001F0AAFE01220C21092001F0A5FEF53466
:102BA000FF343AE208F018F8974B186005980028AF
:102BB0001FD1934B1B68002B1BD1914B01221A6034
:102BC000059E012E00D1B2E1731C00D1BCE18C4BFB
:102BD0001B68032B00D029E2012E00D1C1E1731C38
:102BE00000D023E2C8235B009C4200DC1EE20A3CCA
:102BF0001CE2002804D1824B1B68012B00D1A9E004
:102C0000002804D17E4B1B68072B00D1A6E00028CA
:102C100004D17B4B1B68022B00D1A3E0002804D118
:102C2000774B1B68032B00D1B6E0002805D1744B0D
:102C30001B68043B012B00D8BFE0012800D1F3E062
:102C4000431C00D1F0E0022800D121E10328B7D1D4
:102C50006B4B1B68042B00D137E1052BB0D16B48BF
:102C600005F006FF62496148FFF7C0FE06AA00238F
:102C7000069307930893002109910A919382937513
:102C8000D3750EA80C900D932026935514AE129672
:102C900013933826935520AA2093219322932391AE
:102CA000249193829375D375269B0D9A002A00D0A8
:102CB00017E10D9A2792269B9B1800221A70130089
:102CC0000D920C9A039213702C98129914AB99429E
:102CD00000D113E12EAB984200D123E12E9B984600
:102CE0002C91139B03932D93149B03932E930028F5
:102CF00000D119E112904346149300261396129BBB
:102D00001E7012A8FFF788FE0CA8FFF785FE0223AD
:102D100020933F4926A8FFF78BFE3E492CA8FFF7DA
:102D200087FE3300032220A9504606F0ADFF11278D
:102D30003A0031002D4805F0E7FC3A0031002C48FC
:102D400005F0E2FC344B1E70344B1E602C4B072206
:102D50001A6035E72A4B02221A6031E7284B02221B
:102D60001A602DE72E4B1B68002B03D1244B032246
:102D70001A6025E7012B06D0022B00D020E7204B5C
:102D800001221A601CE71E4B04221A600023224A0B
:102D90001370224A136013E72100224805F098FEC1
:102DA0000123209321940023002220A9504606F0FD
:102DB0006BFF134B02221A6002E7174B1B78002BA4
:102DC00006D1154B01221A70144B00221A60F7E647
:102DD000124B1B680E2B03DC0133104A1360EFE625
:102DE0000E4B0F221A60EBE638320020F42100204F
:102DF0003C320020C0B30510DCB90510801A060073
:102E0000643400201927001058340020FCB7051046
:102E10007C21002024320020C50D0220744A0020AD
:102E200078210020B4B70510CF4B1B681A1F012A68
:102E300000D908E7CD4A1278002A00D103E7042B15
:102E40000FD0CB4A012801D001204042C94B1B685A
:102E5000D618D35C002B01D1413333703178002375
:102E600002E0C54AEEE701335E2B0DDCC34AD25CBB
:102E70009142F8D1C0185F2104F0FCFE002905DB67
:102E8000BE4B5B5C33709BE60023F3E75F31F7E7F3
:102E9000B54B1B681A1F012A00D9D7E6B34A12782E
:102EA000002A00D1D2E6042B0DD0B14BB14A1268F2
:102EB000002A02DD013AAF490A60AE4A12689B1847
:102EC00000221A707CE6AC4BF0E7AD4805F0D0FD6F
:102ED000A54B05221A600023A44A1370A54A13606B
:102EE0006EE6012A07D0002A00D1E2E601001800B0
:102EF00005F010FCDDE602781A70DAE6139A002A73
:102F000006D1139A2D922C9B9B1800221A70F4E67E
:102F1000012A04D0002AF4D005F0FCFBF1E70B787D
:102F20000370EEE70020DBE614AB1293E5E68E4B70
:102F30001B68022B00D047E6924F3B68581C0321C8
:102F400004F098FE396042E6874B1B68022B00D0E4
:102F50003DE68C4F3B68981C032104F08BFE3960E2
:102F600035E6894B9C4200DD39E60A345EE01122E9
:102F70000021814805F0C8FB112200217C4805F0A2
:102F8000C3FB794B01221A6066E0002144A8FEF7DA
:102F90002DFC0126009600231E227C4944A8FEF742
:102FA000D5FB00270197009727232722784906A8F9
:102FB000FEF7E2FD0197774B00931023302206A91C
:102FC00044A8FEF720FC009638232822724944A822
:102FD000FEF7BCFB44A8FEF717FF704B1B68002BE5
:102FE00042D06F4B06930B9E002E11D07368013BAD
:102FF0007360002B0CD133689B6830009847B3682E
:10300000013BB360002B03D13368DB683000984785
:10301000644B0693322007F057FF634B1868002279
:1030200005A907F059F8002800D0BBE54E4B1B68F6
:10303000002B09D0022B07D0032B05D0042B03D083
:10304000052B01D0072B07D107F0C6FD574B1B6896
:10305000C01A574B98428AD8434B1A68072AD9D8C6
:103060009300544AD3589F4607F0B6FD4B4B186067
:10307000B7E7002232A9280007F02EF80028C9D0AF
:1030800032AE339C002144A8FEF7B0FB0127009725
:1030900000231E22484944A8FEF758FB349B474AA8
:1030A000202118A804F07AFD00970923002218A90E
:1030B00044A8FEF74BFB339B414A202118A804F09B
:1030C0006DFD00971223002218A944A8FEF73EFBCD
:1030D000359805F073FA009001913A4A202118A81A
:1030E00004F05CFD00971A23002218A944A8FEF7FB
:1030F0002DFB369805F062FA00900191324A2021AA
:1031000018A804F04BFD00972223002218A944A818
:10311000FEF71CFBF37D002B1CD001230093293309
:1031200000222A4944A8FEF711FB012300933733FC
:103130000022274944A8FEF709FB44A8FEF764FED5
:10314000FA23DB00349A9A4200DC63E7064B06223E
:103150001A605FE701230093293300221D4944A828
:10316000FEF7F4FAE1E7C04664340020C50D022002
:103170003C320020744A0020F421002090210020DD
:10318000D4B7051078210020DB05000034B8051005
:10319000F0B90510FFFF000040B8051050320020C4
:1031A000F8B30510A4B005103832002058340020C0
:1031B00010270000B4B9051048B8051054B8051020
:1031C00060B8051070B805107CB8051088B80510F7
:1031D000A8B8051098B80510002144A8FEF706FB12
:1031E0000126009600231E22CC4944A8FEF7AEFA21
:1031F000009610231022CA4944A8FEF7A7FA0096A9
:103200001A231022C74944A8FEF7A0FA00962423E7
:103210001022C54944A8FEF799FAC44B1B68002B3D
:103220000BD0C24B1B68012B10D0C04B1B68022B6C
:1032300014D044A8FEF7E8FDECE6013300930F3309
:103240000022BB4944A8FEF781FAEAE7009319334C
:103250000022B74944A8FEF779FAE6E7013B00935C
:1032600023330022B24944A8FEF770FAE1E70021B7
:1032700044A8FEF7BBFA2300AE4A202118A804F0A8
:103280008DFC012600960023002218A944A8FEF711
:103290005DFA009610230022A74944A8FEF756FACB
:1032A000009620230022A54944A8FEF74FFA44A81F
:1032B000FEF7AAFDAEE6002144A8FEF797FA012624
:1032C000009600230A229E4944A8FEF73FFA009682
:1032D000182300229B4944A8FEF738FA9A4B1B7822
:1032E000002B29D0994B1A68D20092B20096242361
:1032F000974944A8FEF72AFA00962E230022954902
:1033000044A8FEF723FA009638230022924944A8E5
:10331000FEF71CFA00962E234422904944A8FEF79B
:1033200015FA0096382344228D4944A8FEF70EFA78
:1033300044A8FEF769FD6DE60126009620230022D1
:10334000884944A8FEF702FA00962A2300228649FB
:1033500044A8FEF7FBF9009638230022834944A8CD
:10336000FEF7F4F9E4E7002144A8FEF73FFA01264E
:103370000096002310227E4944A8FEF7E7F9009644
:10338000182300227B4944A8FEF7E0F96E4B1B7816
:10339000002B30D06D4B1A68D20092B200962423D5
:1033A0006B4944A8FEF7D2F90096302300227249F7
:1033B00044A8FEF7CBF900962E230022654944A8C5
:1033C000FEF7C4F9009638230022634944A8FEF7AB
:1033D000BDF900962E234422604944A8FEF7B6F9B1
:1033E0000096382344225E4944A8FEF7AFF944A86A
:1033F000FEF70AFD0EE60126009620230022594919
:1034000044A8FEF7A3F900962A230022564944A8AF
:10341000FEF79CF9009638230022544944A8FEF791
:1034200095F9E4E7002232A9280006F055FE0028AD
:1034300007D0FA23DB00349A9A4202DA4F4B01227A
:103440001A60002144A8FEF7D1F901270097002354
:1034500008224B4944A8FEF779F900260196009608
:1034600027232722474906A8FEF786FB0196464BED
:1034700000931023302206A944A8FEF7C4F9349B18
:10348000424A202118A804F089FB0097382308221B
:1034900018A944A8FEF75AF944A8FEF7B5FC3C4B1E
:1034A00006930B9F002F11D07B68013B7B60002BA4
:1034B0000CD13B689B6838009847BB68013BBB60F8
:1034C000002B03D13B68DB6838009847314B0693EB
:1034D000A0E5002144A8FEF789F901270097002301
:1034E00008222D4944A8FEF731F90097102308223D
:1034F0002A4944A8FEF72AF90097202318222849D0
:1035000044A8FEF723F9009738230022254944A850
:10351000FEF71CF944A8FEF777FC7BE5B4B805106C
:10352000C0B80510C8B80510D0B805107821002023
:10353000DCB80510E0B80510ECB80510FCB80510B3
:103540000CB90510F4210020C50D0220744A00209A
:103550001CB9051020B905102CB9051034B9051097
:103560003CB9051044B9051054B9051064B90510EB
:1035700070B905103C320020D0B60510643400202C
:1035800080B90510B0BA0510FFFF000054B805104F
:10359000F8B30510A4B0051090B90510A0B9051036
:1035A000ACB90510A8B8051010B50400044805F022
:1035B0008FFA002C02D0200005F08EF810BDC04616
:1035C00070BB051070B505000C001600002924D052
:1035D000080012F037FB020029001A4805F078FABB
:1035E0000BF0D0FB184B186000281ED017490BF0C9
:1035F000BFF8154B1868164B502221000BF0F4F859
:10360000011E19D0134805F063FA0F4B18680BF030
:1036100097FA300005F060F870BD01000E4805F023
:1036200057FA300005F058F8F6E70C4805F020FA94
:10363000300005F051F8EFE7034B186831000BF04C
:1036400085F8E9E7B4BB051068210020A935001012
:10365000FD360010FCBB05108CBB0510D8BB051057
:1036600070B505000C1E0FD0080012F0EBFA020036
:1036700029001A4805F02CFA194B1B68002B08D0BA
:10368000184805F0F5F970BD0100174805F020FA5B
:10369000F9E70BF077FB124B1860002819D00021D6
:1036A0000BF054F80E4D114928680BF061F82868AA
:1036B0000F4B502221000BF097F8011EE3D00D486C
:1036C00005F006FA064C20680BF03AFA0023236056
:1036D000D9E7094805F0CCF9D5E7C0464CBC051040
:1036E0006834002070BC051020BC0510A9350010FE
:1036F000E5380010C0BC05109CBC0510F0B5C646EE
:1037000000B52F4CA54405000E00141E47D12D48CE
:1037100005F0AEF92C4930000BF02AF82B699846D9
:10372000AB8A802788AC6A6807920693E86804F041
:1037300045FF04900591404604F040FF029003913C
:10374000AB680093214B224A7900200004F026FA4E
:1037500020004BF01DFE0300802100941D4A8900CB
:1037600008A804F01BFA1C4B00221A601B49300009
:103770000AF0F0FF08A84BF00BFE82B2012308A963
:1037800030000DF0CBFE041E11D130000EF07CFB9A
:103790002000C8239B009D4480BCB846F0BD1100AA
:1037A0000F4805F095F9280004F096FFF0E70100B6
:1037B0000C4805F08DF930000BF0C2F9E8E7C0467F
:1037C000E0FCFFFFE4BC0510A935001010BD05109A
:1037D00024BD051068BD051054340020E9370010E1
:1037E000FCBB051020BE0510F0B5C64600B50500AF
:1037F0000E001400002B29D1002A27D05289264B15
:103800001F68D11980239B0099422EDB234924484D
:103810004BF0A0FF00283AD0224921484BF09AFFF4
:10382000002830D0204805F023F9002D02D02800D0
:1038300004F052FF20000AF055FA30000BF046FB6E
:1038400000231A4A1360144A13600AE0002C02D0C5
:1038500020000AF047FA30000BF038FB134B00222F
:103860001A60002080BCB846F0BD0D4B9846F81891
:10387000616804F04FFF6389FF18074B1F60002346
:103880004246D355C2E70A4805F0F2F8CDE72000DA
:103890000AF028FAE5E7C0465434002040BE05107F
:1038A000543200204CBE051054BE05106821002083
:1038B00084BE051010B5084B00221A6080325201F8
:1038C0000021064804F020FF054B1B68002B02D0A6
:1038D000034B00221A6010BD20320020202200205D
:1038E0006834002030B5D3B00D00141E2AD123480F
:1038F00005F0BEF842AC224B224A4021200004F0E1
:103900004DF920004BF044FD8021019400901E4BA6
:103910001E4A490002A804F041F91D4928000AF096
:1039200019FF02A84BF034FD82B2012302A928003E
:103930000DF0F4FD041E12D128000EF0A5FA2000AF
:1039400053B030BD1100134805F0C2F828000BF049
:10395000F7F8114B00221A60FFF7ACFFEFE70F48B2
:1039600005F086F828000BF0EBF80B4B00221A60EC
:10397000FFF7A0FF06246442E1E7C046CCBE051075
:1039800004BF051018BF051024BF05102CBF05107B
:10399000A1390010A8BE051068340020F8BF05103A
:1039A000F8B50E00141E1BD052892A4B1D68511900
:1039B00080235B0199423DDA274FE819616804F0E2
:1039C000A9FE6389ED18234B1D6000237B552189D7
:1039D00030000AF05FFE20000AF084F90020F8BDF4
:1039E0001E491D484BF0B6FE00280ED012300400D0
:1039F00022214AF0B9FC002807D0002303702000E0
:103A000048F032F90100431C0BD1154805F030F89D
:103A100030000BF095F8134B00221A60FFF74AFFB5
:103A2000DCE7114B1880114B01221A70104805F089
:103A30004FF8EDE70F4805F01BF820000AF052F9A7
:103A400030000BF07DF8074B00221A60FFF732FFC1
:103A5000C4E7C046203200202022002014C00510F8
:103A600054C0051068340020AC0D0220C10D0220A6
:103A700028C0051094C0051030B583B00400184B61
:103A80001B68002B05D0174804F0F2FF002003B09C
:103A900030BD482004F0E2FD051E0FD04822210071
:103AA00004F038FE2B00104A01A9104809F06EFA04
:103AB000002808D0431D0DD10120E8E70C4804F090
:103AC000D7FF0020E3E72A0001A90848FFF77AFDA5
:103AD0000120DCE7280004F0FFFD0020D7E7C04606
:103AE00068210020B0C00510C53500100CC10510BC
:103AF000E8C0051000B583B0124B1B68002B05D041
:103B0000114804F0B5FF002003B000BDFFF7D2FE5E
:103B100000230E4A01A90E4809F038FA031E03D00B
:103B2000053308D10120EFE7002201A90848FFF77B
:103B300097FD0120E8E70100064804F0C9FF0020D6
:103B4000E2E7C0466834002020C10510613600104D
:103B50000CC1051048C1051010B5094804F088FFD4
:103B600012F06CFF002806D112F02AFE054804F07E
:103B70007FFF012010BD044804F07AFF0020F9E720
:103B80006CC10510B4C105108CC1051010B5012819
:103B900005D0002802D10E4B994211D010BD0C4B1C
:103BA0009942F6D10B4B1A0008321A6000225A6073
:103BB0001A72094B1C0008341C605A601A72E8E73C
:103BC0000548FEF729FF0348FEF726FFE6E7C04653
:103BD000FFFF00006C34002008220020F0B583B005
:103BE00004000D0088420FD04E68030008330268BD
:103BF00093420BD08268B2420AD3002E1BD166607A
:103C0000226892190023137003B0F0BD0F22F2E76F
:103C1000019601A92000FCF7BFFC070020682300E3
:103C20000833984203D0A368591C04F089FD27602B
:103C3000019BA360E1E720682968012E05D0002ED2
:103C4000DDD0320004F066FDD9E70B780370D6E7CB
:103C5000F0B595B005684468794804F009FFFFF7AE
:103C60007BFF002820D000230293039304930022BB
:103C70000592069202AA93820022002102A8817571
:103C8000C2750AA9089109932021425410A90E91E6
:103C90000F9338330100C2546A4A200006F01CFA20
:103CA000012808D000262DE0674804F0E1FE00203E
:103CB00006F0DEFED7E7654E08A93000FFF78EFF5D
:103CC0000EA96348FFF78AFF089B0193190061481A
:103CD00004F0FEFE0E99604804F0FAFE7368002BB3
:103CE00003D05B4B5B68002BDCD15C4804F0C0FE6A
:103CF0005B495648FEF79CFE5A495548FEF798FE28
:103D0000D0E73E00022E25DC771C03233A000899F9
:103D1000554804F0DDFE4D4B18684D4B1968534B68
:103D2000534A12F017FE011E08D0524804F0D0FE8C
:103D3000022FE6DC504807F0C7F8E2E74F4804F0EE
:103D400097FE4F4B1868043011F07CFF01004D487E
:103D500004F0BEFE022E06DC4B4807F0B5F84B48D7
:103D600004F086FE2DE04A4804F082FE002006F0B2
:103D70007FFEF1E7022300224649280005F084FF78
:103D8000454B00221A7020E0444804F071FE444B79
:103D900000221A7002E0434804F06AFEFA20C000D4
:103DA00007F092F8FFF7A6FE002802D03E4804F084
:103DB0005FFE10213D4804F08BFEFA20800107F0E1
:103DC00083F8354B1B78002BD4D11E4A02A9200062
:103DD00006F082F90128DED1354804F049FE039B44
:103DE00001931900334804F073FE049B01931900FA
:103DF000314804F06DFE069B0193181C04F0DEFBB5
:103E000002000B002D4804F063FE059B0193181C73
:103E100004F0D4FB02000B00294804F059FE02AB69
:103E2000998A284804F054FE02A8FFF725FE0028CE
:103E3000AAD0254804F01CFE194B01221A70ADE7E8
:103E4000D0C1051030750000F8C105106C34002099
:103E50000822002014C205102CC2051044C205100F
:103E600078C2051088C205109CC20510983A00005F
:103E70000600400018C3051088130000D4C20510C6
:103E800074F70020FCC20510B80B000078C30510C1
:103E900048C30510AC0D0220C10D022064C40510FA
:103EA000C00D02208CC40510C8C4051000C5051043
:103EB000B0C30510CCC30510E4C30510F4C305104E
:103EC0000CC4051020C4051034C4051010B50249F7
:103ED0000120FFF75BFE10BDFFFF0000F0B5D646E6
:103EE0004F464646C0B5C2B0076843689A460023AD
:103EF00099463D9303A904A8FEF7ABFD059EA04B90
:103F0000336001237360B3609E4B33600C2398468B
:103F1000B0449D4A00214046FCF7BEFC4B46059349
:103F20003E9643463D933F934096002E02D07268E2
:103F30000132726050223FA93AA800F0AEFA409ECA
:103F4000002E11D07368013B7360002B0CD13368D5
:103F50009B6830009847B368013BB360002B03D1E6
:103F60003368DB68300098474822002128A804F015
:103F7000CBFB30AB2E9300222F922026002102ABE8
:103F800098241B199A5536AB34933592382002ABDE
:103F90001B191A5416AB16921792189200241994F2
:103FA0001A949A8200249C75D9751EAC1C941D929B
:103FB000995524AE22962392195400213AA800F074
:103FC000A9FA299011232EAA10213AA800F048FB43
:103FD000112334AA20213AA800F042FB299B019327
:103FE00019006A4804F074FD2E9B0193190068487B
:103FF00004F06EFD349B01931900664804F068FDDF
:104000000023002228A9380005F03EFE3FE0012AE7
:1040100004D0002A5FD004F07DFB5CE00B780370D5
:1040200059E0012A04D0002A68D004F073FB65E04F
:104030000B78037062E024AB984266D0249D2291F5
:10404000119B01932393129B0193249300285ED02C
:104050001090129500231193109A019213701098EA
:1040600012AB984203D0129B591C04F069FB0A98CA
:104070000CAB984203D00C9B591C04F061FB01224D
:10408000524216A9504606F027F8012842D004AB48
:1040900000220492059206920020079008900026C4
:1040A0009A8200279E75DF750CA90A910B92202435
:1040B0001F5512AC1094119238241F5516AB16924E
:1040C0001792189219901A909A829E75DE751C9814
:1040D0000B9A002A9BD10B9A1D921C9B9B180022C5
:1040E0001A7000230B930A9A019213702298109968
:1040F00012AB99429FD1119A002A92D1119A239220
:10410000229B9B1800221A70A4E7002097E712ABAD
:1041100010939FE7169B022B1BD0032B0DD0012B76
:10412000B5D1179EB2B200213AA800F0C1F931040E
:10413000090C194804F0CCFCA9E7179EB2B2002183
:104140003AA800F0B5F93104090C134804F0C0FC9A
:104150009DE711231CAA10213AA800F030FA112380
:1041600022AA20213AA800F02AFA1C9B01931900E8
:104170000A4804F0ADFC2299094804F0A9FC86E73E
:10418000C0B30510DCB90510A086010030C50510CC
:1041900060C5051088C50510B0C50510DCC5051043
:1041A000F8C5051070B505000C000160080000F0AE
:1041B00007FC0123A340D02212065362936128001A
:1041C00070BD026801239340D022120653617047EC
:1041D000026801239340D0221206936170470000C9
:1041E00030B585B004000B6802934B680393002B35
:1041F00002D05A6801325A608023012200925B008B
:10420000EF3202A92000FDF789F9039D002D11D09E
:104210006B68013B6B60002B0CD12B689B682800FE
:104220009847AB68013BAB60002B03D12B68DB6880
:1042300028009847024804F01BFC200005B030BD60
:1042400014C6051010B5FDF779F903002D3BFF3BAF
:104250009BB2034A934200D810BD01204042FBE7C5
:104260008C0A000070B586B005000C000B68029344
:104270004B680393002B02D05A6801325A608023A6
:10428000012200925B00F03202A92800FDF746F9F6
:10429000039E002E11D07368013B7360002B0CD17C
:1042A00033689B6830009847B368013BB360002BCC
:1042B00003D13368DB683000984728001430236846
:1042C000049363680593002B02D05A6801325A6048
:1042D000022301220092FF33F03204A9FDF71EF9F8
:1042E000059C002C11D06368013B6360002B0CD14E
:1042F00023689B6820009847A368013BA360002BBC
:1043000003D12368DB6820009847034804F0B0FB22
:10431000280006B070BDC0462CC6051010B5FDF7CC
:104320000DF904F023F9024904F0C1F810BDC046AC
:104330000000204110B51430FDF700F904F016F923
:10434000014904F0B4F810BD0000204110B58B0005
:10435000C918490089B2FDF711F910BD70B588B0D0
:1043600004000D000B6802934B680393002B02D0EE
:104370005A6801325A60012300930023012202A9E6
:104380002000FDF7CBF8039E002E11D07368013B8F
:104390007360002B0CD133689B6830009847B3687A
:1043A000013BB360002B03D13368DB6830009847D2
:1043B000200014302B6804936B680593002B02D007
:1043C0005A6801325A6000230093012204A9FDF7C4
:1043D000A5F8059E002E11D07368013B7360002B79
:1043E0000CD133689B6830009847B368013BB360D9
:1043F000002B03D13368DB68300098472000283059
:104400002B6806936B680793002B02D05A68013221
:104410005A60002300930433012206A9FDF77EF8B9
:10442000079D002D11D06B68013B6B60002B0CD1F8
:104430002B689B6828009847AB68013BAB60002B5A
:1044400003D12B68DB68280098470023A38700214D
:104450002000FFF77BFF034804F00AFB200008B0B0
:1044600070BDC04644C6051010B5FDF767F80A21B7
:1044700003F028FC80B210BD70B528300500FDF7B0
:104480005DF80400322006F01FFD2800FDF756F805
:10449000201A431E9841C0B270BD0B6803604B6880
:1044A0004360002B02D05968013159600272704795
:1044B00010B582B00300080A6C4620706170D1B25A
:1044C000A170120AE270C9432171D2436271186867
:1044D000197A06236A46FCF70DFB044804F0C8FA73
:1044E0001E2001F0A5FB02B010BDC04654C6051049
:1044F0000A788B78DB43DBB29A4207D14A78CB78D3
:10450000DB43DBB29A4203D0002000E0002070477A
:104510000120FCE730B585B004000B0A6A4613732E
:104520005173017A0423019302AD0095023B03AA63
:104530000068FCF775FA29002000FFF7D9FF002872
:1045400005D06B781B022878184305B030BDC82011
:104550008000FAE7F8B500AF0400080011001A0067
:104560009D1C0933DB08DB006E46F31A9D46060AE4
:104570001E705870981C04F0CDF82068217A2B002A
:104580006A46FCF7B7FA052001F052FBBD46F8BDBC
:1045900070B582B0040015001E000B0A6A46137144
:1045A0005171017A022301AA0068FCF7A3FA20687E
:1045B000217A33002A00FCF7A6FA02B070BDF0B5EC
:1045C000C64600B500AF80460E0015001C0007333C
:1045D000DB08DB006A46D31A9D46220000216846AC
:1045E00004F092F82968621E68464AF039FF2300F9
:1045F0006A4631004046FFF7ADFFBD4680BCB84675
:10460000F0BD000070B582B005000E1E0DD0941BE9
:1046100001940F2C0ED82868012C14D0002C14D033
:104620002200310004F076F80FE09142EFD00B4801
:1046300029F008F8002201A92800FBF7ADFF286047
:10464000019BAB60E7E733780370019A6A602B68DF
:104650009B1800221A7002B070BDC04688C60510B3
:10466000F0B5C64600B588B000AF14001D00073392
:10467000DB08DB006A46D31A9D466E462B006A466D
:10468000FFF786FF013D0023735508250833EA181C
:10469000D319BB6030004AF07BFE32180023310092
:1046A0000826B819FFF7AEFF206822000832B96863
:1046B000AB19DB19994222D0904234D0A3689846B6
:1046C0002160FB687B6063603B69A36000282CD09D
:1046D000B86043463B610023FB60BA681370B8685A
:1046E000083308229B18DB19984203D03B69591CF8
:1046F00004F026F8BD4608B080BCB846F0BDFA68A4
:10470000002A06D1FA68626023689B1800221A709A
:10471000E1E7012A04D0002AF4D003F0FBFFF1E71F
:104720000B780370EEE70020CAE7082308229B18E5
:10473000DB19BB60CFE7000010B58300084A944640
:1047400063441C6840226240C0241440802252010D
:1047500013431C60C000034B9C466044416010BD85
:1047600004C001400040014080000B4B9C46604467
:1047700000290DD00823002A0CD00422134302681C
:1047800053400C22134080225201104303607047B3
:104790000023F0E70022F1E704C00140002909D01E
:1047A0008000094B9C46604480239B0118430223F0
:1047B000036070478000044B9C466044C0239B010B
:1047C000184302230360F4E704C0014070B50400FD
:1047D000D0231B061D68AA000C4BD358002B0AD00F
:1047E000002803D0AD00094BEC5070BD08490D20E6
:1047F00000F05AFBF6E70028F7D0AD00034BE85075
:10480000002203490D2000F035FAEEE7004D0020AC
:104810002949001070B5D0231B061B689D00094C68
:104820002C59204207D19B002043064C18510D20E3
:1048300000F020FA70BD044B044ACC21044802F079
:104840004DF8C046EC090120B4C6051074C7051028
:10485000E0C6051010B50400D0231B061B689B00A2
:104860000A4A9B5818420BD00D2000F01DFBD023A4
:104870001B061B6805499B005A58A2435A5010BD9D
:10488000034B044AD621044802F028F8EC09012021
:1048900024C7051050C70510E0C6051007230340C4
:1048A0009B00C00899403C308000014BC1507047CC
:1048B00000400140F8B507000C0016001D00FFF78E
:1048C000EDFFFB089B00ED18072038408000844076
:1048D000002E04D080239B011D432C60F8BDC02313
:1048E0009B011D432C60F9E710B5D0231B061B6804
:1048F000002B03D0024BFFF7DDFF10BD014BFAE7A1
:10490000304101400041014070B514001D00FFF727
:10491000EBFF2800FFF75AFF002C00D170BD0121EA
:104920000D2000F06DF9F9E7F0B5D6464F46464642
:10493000C0B5D0231B061F68BA001D4BD35898463C
:10494000002F03D01B4B9946002623E01A4B9946B3
:10495000FAE724090135002C1BD033000833AB42A1
:1049600017D90F231A00224092462342F1D0BB00F0
:10497000124A9A580123AB401342EAD1514628000B
:10498000FFF78CFF4346002BE3D051462800C04779
:10499000DFE708361D2E06D8F30808339B004A4689
:1049A0009C583500D7E7E0BCBA46B146A846F0BDF2
:1049B000004D00203041014000410140EC09012040
:1049C00010B501238340D022120693629361052122
:1049D000FFF7B2FE10BD0000034B1B680220184019
:1049E000431E9841C0B2704700C00640EFF31080EC
:1049F00072B6034B1B68002BFBD0BFF35F8F704771
:104A00002C0100D0BFF35F8F024B00221A6080F3AD
:104A1000108870472C0100D0F8B506000C00150076
:104A2000FFF7E4FFE308F718F15C072222400123B7
:104A300093400B4205D1DBB20B433B70FFF7E2FF23
:104A4000F8BD2100280001F0E3FFF0B583B00600B7
:104A5000019114001F00FFF7C9FF00E00134BC42C0
:104A60000CD8E308F518F35C0721214001228A40A5
:104A70001A42F3D1D2B21A432A7001E001246442EF
:104A8000FFF7C0FF002C02DB200003B0F0BD019B4C
:104A9000002BF9D0089801F0BBFF000070B50500AD
:104AA0000C00FFF7A3FFE308EE18EA5C07210C40B7
:104AB0000123A340134204D09A433270FFF7A2FFB0
:104AC00070BD034B034A2C31034801F007FFC04679
:104AD000A8C7051010C80510C8C70510002307E0B7
:104AE000054A9A189200BFF35F8F002111600133CD
:104AF0001F2BF5D97047C04640000034054A107896
:104B0000431CDBB21370172B02D9130010221A704A
:104B10007047C04614130020074B9B68103080007C
:104B20001950BFF35F8FBFF35F8F044B00211960F3
:104B300082F310887047C04600ED00E0240100D0E9
:104B400010B5091A081F0A4B9C466144094A914254
:104B500008D8C30706D440104005400D064B184343
:104B600080B210BD054B064AA321064801F0B6FEEF
:104B7000FC070000FE0F000000E0FFFF20C805104A
:104B800078CA051050C8051010B5091A04394C0828
:104B9000090B08D14905490D064A11430180064B0E
:104BA0002343438010BD054B054AAB21054801F066
:104BB00095FEC04600F0FFFF00F8FFFF94C8051007
:104BC0004CCA051050C8051001238340034A1068E1
:104BD0001840431E9841C0B27047C04600E100E053
:104BE000002904D0034B1860034B18607047034B37
:104BF0001860FBE780E200E000E100E080E100E017
:104C000010B5012383401800FFF7EAFF10BD000034
:104C1000024B9B6810308000C058704700ED00E0E8
:104C200070B504000D00EFF3108672B60C4B1B68D4
:104C3000002BFBD0BFF35F8F2000FFF7E9FF094B8C
:104C4000984201D0A84205D1320029002000FFF788
:104C500063FF70BD044B054A8621054801F03EFE06
:104C6000240100D0CD010010A4C80510ACCA051065
:104C700050C80510F0B5DE4657464E464546E0B5ED
:104C800089B0814601911500EFF3108A72B6744B1A
:104C90001B68002BFBD0BFF35F8F724B0027DF57E1
:104CA000002F40DB7C00E419A4006F482418062282
:104CB000A2566C4B1A706D4B9A684B4610339B0092
:104CC000D35898461E001B1A2F2B38D9684B98458D
:104CD0002FD105AE674B33807B009B46D8198000EF
:104CE000614B9846404402306349FFF729FF7080CA
:104CF000624BB380FF23B371F571019B07935F444F
:104D0000BF0047440ECE0EC701231C43A0465246A7
:104D100041464846FFF700FF09B0F0BCBB46B2462B
:104D2000A946A046F0BD564B564AD721564801F039
:104D3000D5FD564B534ADE21534801F0CFFDC04309
:104D400040440C2102F0BEFF002912D101239E43F2
:104D5000B34633000026DA79AA4211D90621595602
:104D600000290CDB4A00521892001E003E4B9B1893
:104D7000F1E7474B434AEA21434801F0AFFD1E00EB
:104D8000002E3AD005AB434A1A80813A5A80062356
:104D9000F3560293002B17DA3F4805AB9B469880E9
:104DA000029A9A71DD71019A0792301D2100FFF776
:104DB000C7FEB080B7717B00DB199B002A4FFF183C
:104DC0005B4607CB07C7A2E77800C0198000264BD7
:104DD000C0180430321DB388D90A1C2907D15B05DD
:104DE0005915023149005118FFF7AAFED5E72B4BA0
:104DF0002B4AB121244801F071FD05AE1D4B3380D3
:104E00007B000293D8198000174A90460200424462
:104E10000392901C1849FFF793FE7080039A101DAF
:104E20005946FFF78DFEB0801E4B5A464146521A36
:104E3000524153431B0DB371F571019A0792029BC6
:104E40009C466744BF0047440ECE0EC7114B5A46DE
:104E50001380813B538001231C43A04657E7C04683
:104E6000240100D0D20D02201813002000ED00E034
:104E7000CD01001000A1FFFF4813002001BDFFFF7E
:104E8000DCC8051094CA051050C8051004C90510E7
:104E90002CC905100148000001BD0000A0C9051083
:104EA00084CA0510AAAA0000F0B5CE46474680B5D0
:104EB00083B006000D00EFF3108872B6564B1B68E6
:104EC000002BFBD0BFF35F8F544B9A683400103433
:104ED000A300D758524B9F4207D0AF4200D198E071
:104EE0000197504BFB1A2F2B09D94246390030004D
:104EF000FFF712FE03B0C0BCB946B046F0BD3000AB
:104F0000FFF762FE814600213000FFF779FEBFF314
:104F10005F8FEFF30581002901D08C4211D101236D
:104F2000019C9C430022A368AB4212D00622A256E9
:104F3000002A0DDB53009B189B002200394CE4181B
:104F4000F1E73621384B394AFF31394801F0C6FCC8
:104F50002200AB4256D106256557002D38DB6B0089
:104F60005B199A002F4B9B189A68A260DA79E2715C
:104F700006229A56A2719B795BB2002B0FDA2D485C
:104F8000A0806B005B199B00264AD3182A4A11782F
:104F90009971157049463000FFF732FEA5E7201DD4
:104FA0006B005B199B001F4A9B181A1D9B88D90A2E
:104FB0001C2907D15B055B15023359005118FFF717
:104FC000BFFDDDE71D4B1E4AB121194801F086FCEB
:104FD000002912D1002A0ED0FF239371194B938020
:104FE000154A1378A371184B0E49641A6441634340
:104FF0001B0D1370CEE70A4FF2E7201D1349FFF790
:10500000C3FDC7E76A21124B084AFF31084801F087
:1050100065FC034F69E7C046240100D000ED00E0C5
:10502000CD01001018130020B8C9051064CA05107E
:1050300050C8051001BD0000D20D0220A0C9051006
:1050400084CA051001BDFFFFAAAA00005213002068
:10505000ECC9051070B5012101432E4BCB1A2F2B43
:1050600028D8EFF30583002B2BD0EFF3108C72B60A
:10507000294A1268002AFBD0BFF35F8F274A040039
:10508000244D641B64416243120D54B2244A926859
:105090009B00D2588A421BD00022032A32D85300E8
:1050A0009B189B001B49CB189B795BB2A3421FD076
:1050B0000132F2E7C7211B4B1B4A49001B4801F094
:1050C0000DFC92211A4B184AFF31184801F006FCDA
:1050D000134A92681749D150174B1A7882711C7085
:1050E000BFF35F8F0C4B00221A608CF3108870BDE9
:1050F0000D005300991889006918FF268E710F4A18
:105100008A80E9E7D1210E4B074A4900074801F0A0
:10511000E5FBC04618130020240100D0AAAA000015
:1051200000ED00E0F4C9051030CA051050C80510A4
:105130001CCA0510CD010010D20D022001BDFFFFD9
:1051400028CA05100022044B02E0044902C30132C0
:10515000072AFAD97047C04600E400E080808080CA
:10516000024B9C4661448900016070474000003456
:1051700010B50400FFF7C2FC01002000FFF7F0FFAC
:1051800001235B426360BFF35F8F10BD10B5040065
:10519000FFF7B4FC01002000FFF7E2FF01235B42B0
:1051A000636000232372BFF35F8F10BD70B50500ED
:1051B0000C00080000F0F0FE0949200000F030FE6D
:1051C000FFF79CFC074B9C466044800068602C7590
:1051D000D0231B061B786B75A400034BE55070BDF4
:1051E000E95400104000003480F7002010B5084B4F
:1051F0001A68EFF3108172B61368002BFCD0BFF36E
:105200005F8F034804F018F90020002110BDC0464C
:10521000100C012010B5002922D003681B7B994295
:105220001ED8174B9C466144090183689C46614423
:105230000C684968002A19D003681B7B9A4215D86C
:1052400083680F488446624412019A1810685368B4
:10525000020001208B4201D80ED00020C0B210BD48
:10526000084B094A3C21094801F038FB054B064A26
:105270003C21064801F032FBA242EFD8EDE7C046E0
:10528000FFFFFF0FD0CB051038CE051094CB0510D3
:1052900010B500291ED0037B99421BD84B005B1828
:1052A000033B0468A4466344002919D0002A1DD09A
:1052B000914221D0002A25D0047BA24222D8046842
:1052C00050008018033820188170197800291FD1E8
:1052D0001A7010BD104B114A6821114801F0FEFAF6
:1052E000104B114A6F310E4801F0F8FA0F4B0E4A7D
:1052F00070210B4801F0F2FA0D4B0B4A712108485E
:1053000001F0ECFA044B054A6821054801F0E6FA81
:1053100041701A70DDE7C046F4CB0510A4CE05102D
:1053200010CC051060CC051080CE05106CCC05109B
:1053300078CC051070B506000D001400002914D0BB
:10534000002A14D0806873689847002806D022008D
:1053500029003000FFF79CFF280007E02A00210009
:105360003000FFF795FF200000E0100070BD08003E
:10537000FCE70000F0B583B00500009201930AAB92
:105380001C780BAB1F78002C26D003685A7B944204
:1053900007D10123002B19D1002C3BD1200003B0F1
:1053A000F0BD002C0CD01A7B944209D81A68630017
:1053B0001B19033BD3189B78002BEBD00123E9E7A3
:1053C0003E4B3F4A68213F4801F088FA3E4B3F4A36
:1053D00067213F4801F082FA03689C7B002CDBD0F8
:1053E00012D01A7B94420FD862001219033A19683E
:1053F0008C46624451789973002900D1D9730023F7
:10540000937053701370C7E72C4B2D4A68212D48B9
:1054100001F064FA002C3AD02B681B7B9C4236D8F2
:105420002C4BE3181B01AA6894466344009A1A6047
:10543000019A5A60089A9A60099ADA602E68002CDC
:105440002BD030D0337B9C422DD863001B19033BFB
:1054500032689446634400229A705A701A70717BC5
:1054600022003000FFF766FF7073844200D095E79A
:10547000287D009A019B00F01BFD061E01D0002F25
:1054800017D00C9B002B00D188E71E7086E7124BCB
:10549000124A3C210E4801F021FA114B114AA52174
:1054A000084801F01BFA054B054A6821054801F040
:1054B00015FA2868210000F033FFE2E7F4CB05106D
:1054C000A4CE051010CC051090CC0510B0CE051060
:1054D00094CB0510FFFFFF0FD0CB051038CE051081
:1054E00090CB051094CE0510F0B5DE4657464E46DB
:1054F0004546E0B58BB00990002308938200B54B78
:10550000D658370052E0B44BB44A3F21B44801F0BA
:10551000E5F9B44BB44A3C21B44801F0DFF9002965
:1055200001D1002869D10021404600F0EFFEA042E1
:1055300019D12A686B6806920793AB689846EB68A6
:105540009A464346002B14D0002C18D03B681B7B96
:105550009C4214D8631EFA68D35C08931B0218435C
:105560003861002015E0A24BA24A8E219F4801F02D
:10557000B5F9A14B9F4A92219C4801F0AFF9994B94
:105580009E4A4121994801F0A9F900239A4698467C
:1055900000207B68BFF35F8F00221A6086F31088BB
:1055A0004346002B32D1002800D10CE100F0F4FB7F
:1055B00002000B1EA7DB00200021069007917868EF
:1055C000EFF3108672B601680029FCD0BFF35F8F3D
:1055D000396888464C7B002CD7D09AD0097B8C4206
:1055E00097D8874965182D01B9688C4665442868A5
:1055F0006968801A9941002991DD2A686B680998C9
:1056000000F056FC00239A469846C2E7089B1B020E
:105610002343994651461800C04705000E007A689A
:10562000EFF3108B72B6136859424B41D9B2002B7D
:10563000F9D1BFF35F8F002E1EDB002E46DD3B69E4
:10564000002B47D04B456DD100F0A6FB02000B1E8E
:105650006EDB52197341002B70DB002B72DB0021D3
:105660000491013103910294514601914146009108
:105670003800FFF77FFE4CE03B69002BDDD04B4547
:1056800014D1069A079B521BB341002B14DB002B4D
:1056900016DB0021049101310391029451460191DE
:1056A000414600913800FFF765FE32E0554B514A04
:1056B000A1214E4801F012F901225242524BE6E775
:1056C000454B464A3F21464801F008F9002E01D1DA
:1056D000002DB4D13B68002C50D05A7B944237D176
:1056E000012100294AD1DA7B002A4DD19A7B002A78
:1056F00003D1DA7B002A5AD19C73DC73002C5CD076
:105700003B681B7B9C4258D8FA68013C135D01330F
:10571000135500233B617A68BFF35F8F13608BF3EF
:10572000108843E7374B334AA421304801F0D6F8BC
:10573000294B2A4A3F212A4801F0D0F8012252423F
:10574000314B8AE7244B254A3F21254801F0C6F812
:10575000002C0DD01A7B94420AD862001219033A29
:105760001868844662449278002ABAD00121B8E7CA
:10577000264B274A6821274801F0B0F8264B274AD4
:10578000F621244801F0AAF8002A0AD0197B8A429F
:1057900007D851008A18033A19688C46624454703D
:1057A000A4E71A4B1A4A68211A4801F097F81C4BD3
:1057B0001A4AFB21174801F091F80A4B0F4A412180
:1057C0000A4801F08BF80BB0F0BCBB46B246A946C4
:1057D000A046F0BD80F7002014B7051004CE0510D8
:1057E00068B70510D0CB051038CE051094CB051046
:1057F000B8CC05101CCE0510D0CC05105CCE051021
:10580000FFFFFF0FDCCC0510FFFFFF7FF4CB05107F
:10581000A4CE051010CC051018CD051070CE0510C3
:105820003CCD051010B50C4B5B68002B04D00A2151
:105830000A48FFF795FC10BD074C2300084A1021C9
:10584000206800F073FC032000F09AFA0321200086
:10585000FFF7ACFCEBE7C04660130020100C012002
:105860001552001010B5064B5B68002B01D00448A0
:1058700010BD044B044A5E21044801F02FF8C046D5
:105880006013002050CD051044CE051094CB0510B8
:10589000F0B5DE4657464E464546E0B58BB08046ED
:1058A00016001F00149B9A46159B994616AB1B7851
:1058B0009B461F2302AA9446634400221A702BE0E1
:1058C000002809D042461268127B904204D8421E3A
:1058D0004146C9688A5C41E0404B414A4121414808
:1058E00000F0FCFF07984CE0361BAF41002F07DBB0
:1058F000002F11DA3C4B3D4A3F213D4800F0EEFFBE
:10590000012676423B4FF3E7374B384A3F21384870
:1059100000F0E4FF002F4FDB43465A68EFF310849A
:1059200072B6136859424B41D9B20791002BF8D196
:10593000BFF35F8F1F3302AA94466344049300238E
:10594000039302934B4601935346009332003B006E
:105950004046FFF70FFD031EB2D1020041464968E1
:10596000BFF35F8F00250D6084F31088002B29D0D2
:105970001F2302A98C4663441B78002BB2D112026C
:105980001043002B20D05B46002B1DD04946D0474A
:1059900004000D0003000B431DD00029A4DB00F020
:1059A000FBF906000F1EAFDB36196F41002FB1DA8D
:1059B000012676420F4FADE70B4B0C4A3F210C48B6
:1059C00000F08CFF012040420BB0F0BCBB46B24659
:1059D000A946A046F0BD0798F6E7C046D0CB051013
:1059E0005CCE051094CB051014B7051004CE05103D
:1059F00068B70510FFFFFF7FF8B504004268EFF3BA
:105A0000108572B6136858424341D8B2002BF9D1C1
:105A1000BFF35F8FCBB22268567BB3421BD101200C
:105A2000002848D0206988422BD0090AC9B2002B2F
:105A30002ED02068007B83422AD8581EE668305C4E
:105A400088422BD000206368BFF35F8F00221A606A
:105A500085F31088F8BD002B0DD0167BB3420AD811
:105A60005E00F618033E1768BC466644B678002E02
:105A7000D6D00120D4E7134B134A6821134800F015
:105A80002DFF9521124B134A4900134800F026FFC1
:105A9000124B134A4121104800F020FF190010005A
:105AA00000F03EFC0028CED132210E4B094AFF31D6
:105AB000094800F013FF23698B42C4D100232361FE
:105AC000C1E7C046F4CB0510A4CE051010CC0510DC
:105AD00074CD0510ECCD051094CB0510D0CB05107E
